:020000040800F2
:100000000080012015330008790F00087B0F0008DD
:100010007D0F00087F0F0008810F0008000000001E
:10002000000000000000000000000000830F000836
:10003000850F000800000000870F0008890F0008E6
:100040006533000865330008653300086533000830
:100050006533000865330008653300086533000820
:100060006533000865330008653300086533000810
:10007000653300086533000865330008910F0008F8
:1000800065330008653300086533000865330008F0
:1000900065330008653300086533000865330008E0
:1000A00065330008653300086533000865330008D0
:1000B00065330008653300086533000865330008C0
:1000C00065330008653300086533000865330008B0
:1000D00065330008A10F0008653300086533000888
:1000E0006533000865330008653300086533000890
:1000F0006533000865330008653300086533000880
:10010000653300086533000865330008653300086F
:10011000B10F000865330008653300086533000837
:100120006533000865330008C10F00086533000817
:10013000D10F0008653300086533000865330008F7
:10014000653300086533000865330008653300082F
:10015000653300086533000865330008653300081F
:10016000653300086533000865330008653300080F
:10017000653300086533000865330008000000009F
:08018000653300086533000837
:1001C000044B05481B1A062B02D9044B03B11847F0
:1001D000704700BF13000020100000200000000046
:1001E00005490648091A891001EBD171491002D05E
:1001F000034B03B118477047100000201000002087
:100200000000000010B5064C237843B9FFF7D8FF73
:10021000044B13B10448AFF300800123237010BDD9
:1002200010000020000000006833000808B5084BEB
:100230001BB108490848AFF300800848036813B9A8
:10024000BDE80840CCE7064B002BF9D09847F7E70C
:100250000000000014000020683300081000002097
:100260000000000070B50F4E0F4D761BB61018BF82
:10027000002405D0013455F8043B9847A642F9D133
:100280000A4E0B4D761B03F06FF8B61018BF002412
:1002900006D0013455F8043B9847A642F9D170BD09
:1002A00070BD00BFF0330008F0330008F4330008DD
:1002B000F0330008844641EA000313F003036DD1D4
:1002C000403A41D351F8043B40F8043B51F8043B19
:1002D00040F8043B51F8043B40F8043B51F8043B20
:1002E00040F8043B51F8043B40F8043B51F8043B10
:1002F00040F8043B51F8043B40F8043B51F8043B00
:1003000040F8043B51F8043B40F8043B51F8043BEF
:1003100040F8043B51F8043B40F8043B51F8043BDF
:1003200040F8043B51F8043B40F8043B51F8043BCF
:1003300040F8043B51F8043B40F8043B51F8043BBF
:1003400040F8043B403ABDD2303211D351F8043B5F
:1003500040F8043B51F8043B40F8043B51F8043B9F
:1003600040F8043B51F8043B40F8043B103AEDD20E
:100370000C3205D351F8043B40F8043B043AF9D25F
:10038000043208D0D2071CBF11F8013B00F8013B32
:1003900001D30B8803806046704700BF082A13D33F
:1003A0008B078DD010F003038AD0C3F10403D21A57
:1003B000DB071CBF11F8013B00F8013B80D331F88B
:1003C000023B20F8023B7BE7043AD9D3013A11F80B
:1003D000013B00F8013BF9D20B7803704B78437076
:1003E0008B7883706046704770B4860746D0541E81
:1003F000002A41D0CAB2034602E014F1FF343BD3D5
:1004000003F8012B9D07F8D1032C2ED9CDB245EA74
:1004100005250F2C45EA054519D903F1100226469A
:10042000103E0F2E42F8105C42F80C5C42F8085C5B
:1004300042F8045C02F11002F2D8A4F1100222F09A
:100440000F0204F00F041032032C13440DD91E4682
:100450002246043A032A46F8045BFAD8221F22F007
:1004600003020432134404F003042CB1C9B21C4447
:1004700003F8011B9C42FBD170BC70471446034635
:10048000C2E700BF00000000000000000000000004
:10049000000000000000000000000000000000005C
:1004A000A2EB0300704700BF02780B78012A28BF37
:1004B0009A42F5D16DE9044540EA0104CDE90267AD
:1004C0006FF0000C4FEA447212B380EA010414F09A
:1004D000070F6AD100F0070420F0070004F00305BD
:1004E00021F007014FEAC505F0E8042314F0040FDA
:1004F000F1E804670CFA05F462EA040266EA04060D
:100500000AD063EA0403624667EA0407664603E02A
:10051000F0E80423F1E8046782FA4CF582EA060465
:10052000A4FA8CF46CBB83FA4CF583EA0705A5FAB0
:100530008CF595B950E9022351E9026782FA4CF52E
:1005400082EA0604A4FA8CF483FA4CF583EA0705E0
:10055000A5FA8CF52543DBD09CB92DBAB5FA85F404
:1005600024F0070427FA04F1DDE9026723FA04F313
:1005700003F0FF0001F0FF01FDE80445A0EB0100DE
:10058000704724BAB4FA84F424F0070426FA04F17C
:10059000DDE9026722FA04F202F0FF0001F0FF0138
:1005A000FDE80445A0EB0100704714F0030F3CD1B7
:1005B00010F0030428D150F8082B51F8083B82FAB8
:1005C0004CF582EA0305A5FA8CF55DB950F8042CC8
:1005D00051F8043C82FA4CF582EA0305A5FA8CF541
:1005E000002DE8D02DBAB5FA85F424F0070423FADB
:1005F00004F122FA04F202F0FF0001F0FF01FDE82D
:100600000445A0EB010070474FEAC40420F003004A
:1006100050F8082B21F0030151F8083B0CFA04F4C0
:1006200062EA040263EA0403C9E710F003041AD083
:10063000A1EB040120F00300E40750F8042B06D0DE
:100640000FD28B785FFAA2F4E41A06D12BB1CB78E3
:100650005FFAB2F4E41A00D11BB920465DF8104BE2
:10066000704701F1040150F8042BCC0721F003017D
:1006700051F8043B48D824D222F07F4482FA4CF54A
:1006800094EA1325A5FA8CF50AD165B951F8043B13
:1006900084EA0204B4EB036F0ED150F8042BEBE7AD
:1006A0004FEA132355E035F07F454DD10878FDE83A
:1006B0000445C0F1000070474FEA126203F0FF03E7
:1006C00047E002EA1C4482FA4CF594EA1345A5FA85
:1006D0008CF50AD165B951F8043B84EA0204B4EB05
:1006E000034F0CD150F8042BEBE74FEA134330E0F3
:1006F00015EA1C4528D10B884FEA124229E04FEA3F
:10070000124203EA1C4324E002F0FF0482FA4CF593
:1007100094EA1365A5FA8CF50AD165B951F8043B42
:1007200084EA0204B4EB032F09D150F8042BEBE761
:100730004FEA13630DE015F0FF0F05D10B684FEA88
:10074000122223F07F4304E04FF00000FDE804454F
:10075000704712BA1BBA82FA4CF482EA0304A4FA74
:100760008CF5B5FA85F402FA04F203FA04F34FEAC1
:100770001260FDE80445A0EB136070470000000024
:1007800090F800F06DE9024520F007016FF0000CD1
:1007900010F0070491F820F040F049804FF0000479
:1007A0006FF00700D1E9002391F840F000F1080054
:1007B00082FA4CF2A4FA8CF283FA4CF3A2FA8CF38C
:1007C0004BBBD1E9022382FA4CF200F10800A4FAF3
:1007D0008CF283FA4CF3A2FA8CF3E3B9D1E9042347
:1007E00082FA4CF200F10800A4FA8CF283FA4CF37E
:1007F000A2FA8CF37BB9D1E9062301F1200182FA38
:100800004CF200F10800A4FA8CF283FA4CF3A2FA3D
:100810008CF3002BC6D0002A04BF04301A4612BA4B
:10082000B2FA82F2FDE8024500EBD2007047D1E94E
:10083000002304F00305C4F100004FEAC50514F0DD
:10084000040F91F840F00CFA05F562EA05021CBFAE
:1008500063EA050362464FF00004A9E7830730B45A
:1008600025D10468A4F1013323EA040313F0803F87
:10087000034608D153F8045FA5F1013424EA0504C6
:1008800014F0803FF6D01C781CB113F8014F002CF7
:10089000FBD18D1805E011F8014B03F8014B24B191
:1008A0003AB1A94202F1FF32F5D130BC704703469C
:1008B000E9E71A70F9E700BF53B94AB9002908BF40
:1008C00000281CBF4FF0FF314FF0FF3000F07AB925
:1008D000ADF1080C6DE904CE00F006F8DDF804E097
:1008E000DDE9022304B070472DE9F0478C460D4640
:1008F0000446089E002B51D18A4217466DD9B2FAA0
:1009000082FEBEF1000F0BD0CEF1200C01FA0EF5E5
:1009100020FA0CFC02FA0EF74CEA050C00FA0EF471
:100920004FEA174A250CBCFBFAF81FFA87F90AFBB5
:1009300018CC45EA0C4508FB09F3AB420AD9ED197E
:1009400008F1FF3280F02381AB4240F22081A8F110
:1009500002083D44ED1AA4B2B5FBFAF00AFB1055AB
:1009600044EA054400FB09F9A14509D9E41900F15D
:10097000FF3380F00A81A14540F2078102383C44F0
:10098000A4EB090440EA08400021002E61D024FABB
:100990000EF4002334607360BDE8F0878B4207D902
:1009A000002E54D0002186E821000846BDE8F087DB
:1009B000B3FA83F1002940F08E80AB4202D3824229
:1009C00000F2FA80841A65EB03050120AC46002E84
:1009D0003FD086E81010BDE8F08712B90127B7FBB9
:1009E000F2F7B7FA87FEBEF1000F34D1EB1B3A0CD9
:1009F0001FFA87FC0121B3FBF2F8250C02FB183328
:100A000045EA03450CFB08F3AB4207D9ED1908F1A1
:100A1000FF3002D2AB4200F2D1808046ED1AA3B281
:100A2000B5FBF2F002FB105543EA05440CFB00FC59
:100A3000A44507D9E41900F1FF3302D2A44500F21E
:100A4000B8801846A4EB0C0440EA08409DE7314604
:100A50003046BDE8F087CEF1200405FA0EF307FA20
:100A60000EF720FA04F83A0C25FA04F448EA0308D1
:100A7000B4FBF2F14FEA184502FB11441FFA87FC60
:100A800045EA044501FB0CF3AB4200FA0EF409D928
:100A9000ED1901F1FF3080F08A80AB4240F287808F
:100AA00002393D44EB1A1FFA88F5B3FBF2F002FB62
:100AB000103345EA034500FB0CF3AB4207D9ED19AF
:100AC00000F1FF386FD2AB426DD902383D44EB1ACA
:100AD00040EA01418FE7C1F1200722FA07F88B4075
:100AE00005FA01F448EA030320FA07FE4FEA134C23
:100AF000FD404EEA040EB5FBFCF94FEA1E440CFB28
:100B000019551FFA83F844EA054509FB08F4AC427D
:100B100002FA01F200FA01FA08D9ED1809F1FF30E2
:100B200043D2AC4241D9A9F102091D442D1B1FFA41
:100B30008EFEB5FBFCF00CFB10554EEA054400FBA5
:100B400008F8A04507D9E41800F1FF3529D2A045DF
:100B500027D902381C4440EA0940A4EB0804A0FB52
:100B600002894C45C6464D4615D312D056B1BAEB54
:100B70000E0364EB050404FA07F7CB401F43CC4097
:100B8000376074600021BDE8F0871846F8E69046AB
:100B9000E0E6C245EAD2B8EB020E69EB0305013884
:100BA000E4E72846D7E7404691E78146BEE701469D
:100BB00078E702383C4445E7084608E7A8F1020810
:100BC0003D442BE7704700BF10B58AB00024059460
:100BD0000694079408940994204BDA6C42F00402BE
:100BE000DA64DA6C02F004020192019ADA6C42F0E3
:100BF0008002DA64DA6C02F080020292029ADA6C05
:100C000042F00102DA64DA6C02F001020392039A04
:100C1000DA6C42F00202DA64DB6C03F00203049344
:100C2000049B224620214FF0904002F08BF94FF4B4
:100C3000005305930A4B0693079405A9094802F04F
:100C400093F820230593012306930794089405A99C
:100C50004FF0904002F088F80AB010BD001002403A
:100C6000000021100008004800B583B0164B9A6CB4
:100C700042F002029A649A6C02F002020092009A18
:100C80009A6C42F001029A649B6C03F00103019399
:100C9000019B002211460F2002F0C2FA0F2002F041
:100CA000F1FA002211463A2002F0BAFA3A2002F094
:100CB000E9FA002211463C2002F0B2FA3C2002F090
:100CC000E1FA03B05DF804FB0010024010B50446E1
:100CD000FFF756FD0A2382B22146024800F0EFFEDC
:100CE00010BD00BF5C03002030B583B00546FFF7A0
:100CF00047FD094C0A2382B22946204600F0DFFE58
:100D000002A940F60D2321F8043D0A2302222046C1
:100D100000F0D5FE03B030BD5C03002038B502689A
:100D20001A4B9A4200D038BD194C0122214619486D
:100D300000F064FA18492046FFF7B6FBA0B9174B3C
:100D40001C68002CEFD0164D224616492846FFF7A6
:100D5000B1FA00232B550121134A11600F4A136089
:100D60002846FFF7B3FF38BD10490948FFF79CFB41
:100D700010B90022094B1A60012205490948FFF702
:100D80006DFD064A136801331360CCE7003801405B
:100D9000D80200208C01002090330008F8000020C9
:100DA0000C020020300000202C00002094330008AA
:100DB00008B50248FFF798FF08BD00BF8033000860
:100DC00008B50B480B4B03604FF4165343600023E8
:100DD0008360C36003610C2242618361C36103626B
:100DE000436200F00FFF00B908BDFFF7E1FFFBE72A
:100DF000DC020020004C004008B50B480B4B0360A0
:100E00004FF4E133436000238360C36003610C222D
:100E100042618361C3610362436200F0F3FE00B983
:100E200008BDFFF7C5FFFBE75C030020004400405E
:100E300008B50B480B4B03604FF416534360002377
:100E40008360C36003610C2242618361C3610362FA
:100E5000436200F0D7FE00B908BDFFF7A9FFFBE72A
:100E60008C0100200038014000B5B9B044220021B7
:100E700027A8FFF7B9FA0021229123912491259107
:100E8000269188226846FFF7AFFA022327934FF492
:100E900080722A9210222B92319332930122339244
:100EA0000A223492072235923693379327A800F00E
:100EB000CFFFF0B90F23229303232393002324931E
:100EC00025932693042122A801F0DEFAA0B90B2372
:100ED000009300230E930F931193684601F018FDC1
:100EE00068B94FF4007002F041F958B939B05DF8B3
:100EF00004FBFFF75DFFDDE7FFF75AFFE7E7FFF7CA
:100F000057FFEEE7FFF754FFF0E7000008B500F0E9
:100F1000D5FEFFF7A9FFFFF757FEFFF7A5FEFFF786
:100F20004FFFFFF769FFFFF783FF0D48FFF7DCFE78
:100F300001220C490C4800F061F908B1FFF738FFB5
:100F40000A4B1B68012BFBD10948FFF7BFFE094B79
:100F50001868FFF7C9FE0022044B1A60F0E700BFD3
:100F600098330008D80200208C0100202C000020BB
:100F70000C020020F80000207047FEE7FEE7FEE7C5
:100F8000FEE770477047704708B500F0ADFE08BD3A
:100F900008B5024802F080F808BD00BF44010020F7
:100FA00008B5024800F008FA08BD00BF8C01002017
:100FB00008B5024800F000FA08BD00BFDC020020BE
:100FC00008B5024802F068F808BD00BFDC03002045
:100FD00008B5024802F060F808BD00BFFC00002020
:100FE00082B00A4B1A6E42F001021A661A6E02F0C3
:100FF00001020092009A9A6D42F080529A659B6DB0
:1010000003F080530193019B02B07047001002402F
:1010100030B58DB0044600230793089309930A93D3
:101020000B930368634A934208D0634A93425FD0AC
:10103000624A934200F09D800DB030BD604B9A6DC6
:1010400042F400229A659A6D02F400220192019AFC
:10105000DA6C42F00102DA64DB6C03F00103029304
:10106000029B03230793022508950A9308230B93F9
:1010700007A94FF0904001F077FE5248524B0360B1
:10108000456000238360C360802202614361836105
:101090002023C3614FF40053036201F059FF08BBE2
:1010A000484BE3669C624948494B03600223436016
:1010B000102383600023C360802202614361836147
:1010C0002022C261036201F043FF70B93F4BA36667
:1010D0009C6200221146342002F0A2F8342002F073
:1010E000D1F8A9E7FFF764FEDAE7FFF761FEEDE765
:1010F000334B1A6E42F480421A661A6E02F4804232
:101100000392039ADA6C42F00102DA64DB6C03F0BA
:1011100001030493049B4FF4C063079302250895D1
:1011200003230A9307230B9307A94FF0904001F084
:101130001BFE2848284B0360456000238360C36082
:1011400080220261436183612022C261036201F057
:10115000FFFE58B91F4BE3669C6200221146252012
:1011600002F05EF8252002F08DF865E7FFF720FE1B
:10117000F0E7134B9A6D42F400329A659A6D02F4CF
:1011800000320592059ADA6C42F00102DA64DB6CF7
:1011900003F001030693069B0C2307930223089395
:1011A00003230A9307230B9307A94FF0904001F004
:1011B000DBFD41E7004C00400038014000440040A6
:1011C00000100240FC00002058040240DC03002014
:1011D00030040240440100205800024002681368B5
:1011E00023F4907313600268936823F00103936003
:1011F000202383670023036670470000836F202B42
:1012000001D002207047002958D0002A58D090F809
:101210007030012B56D0012380F870304165A0F862
:101220005820A0F85A20002303668368B3F5805F36
:1012300006D0A3B9036973B9FF23A0F85C3014E0AA
:10124000036923B940F2FF13A0F85C300DE0FF23DF
:10125000A0F85C3009E07F23A0F85C3005E0B3F132
:10126000805F1BD00023A0F85C300023C3672223DB
:1012700083670268936843F0010393608368B3F562
:10128000805F15D0104B0366002380F87030016832
:101290000A6842F490720A601846704703691BB9E5
:1012A0007F23A0F85C30E0E73F23A0F85C30DCE768
:1012B0000369002BE6D1054B0366E5E70120704783
:1012C0000120704702207047ED12000853130008F8
:1012D000704708B501680A6822F040020A602022BF
:1012E000426700224266FFF7F3FF08BD08B5B0F879
:1012F0005C30826F222A06D00268138B9BB243F0C7
:101300000803138308BD0268918C426DDBB20B4069
:101310001370436D01334365B0F85A309BB2013B03
:101320009BB2A0F85A30B0F85A309BB2002BE9D1EA
:101330000268136823F4907313600268936823F0C3
:10134000010393602023836700230366FFF7E6FC15
:1013500008BD08B5B0F85C20836F222B06D0026868
:10136000138B9BB243F00803138308BD0368998C69
:10137000436D0A401A80436D02334365B0F85A301A
:101380009BB2013B9BB2A0F85A30B0F85A309BB2E6
:10139000002BEAD10268136823F49073136002688B
:1013A000936823F00103936020238367002303667F
:1013B000FFF7B4FC08BD704738B504460168CB6937
:1013C00008688D6840F60F021A400CD113F0200F08
:1013D00009D010F0200F06D0236E002B00F0A18062
:1013E0002046984738BD002A7DD015F0010202D171
:1013F00010F4907F77D013F0010F07D010F4807FA6
:1014000004D001250D62E16F2943E16713F0020F5B
:1014100007D032B1216802250D62E16F41F004016D
:10142000E16713F0040F07D032B1216804250D6283
:10143000E16F41F00201E16713F0080F09D010F0ED
:10144000200F00D12AB1226808211162E26F0A43FD
:10145000E26713F4006F0AD010F0806F07D02268A3
:101460004FF400611162E26F42F02002E267E26F26
:10147000002A56D013F0200F06D010F0200F03D012
:10148000236E0BB120469847E26F23689B6813F0E8
:10149000400F02D112F0280F1FD02046FFF79EFE0A
:1014A00023689A6812F0400F13D09A6822F0400225
:1014B0009A60E36E4BB11D4A9A63E06E01F0C4FD81
:1014C00078B3E06E836B984738BD2046FFF773FF13
:1014D00038BD2046FFF76FFF38BD2046FFF76BFF92
:1014E0000023E36738BD13F4801F02D015F4800F8A
:1014F0000AD113F0800F0ED010F0800F0BD0636E66
:101500007BB12046984738BD4FF480130B622046CC
:1015100000F0AAFB38BD13F0400F02D010F0400FCE
:1015200000D138BD2046FFF7D4FEFAE73115000898
:1015300008B5806A0023A0F85A30A0F85230FFF7AF
:101540003AFF08BD2DE9784B0446016883680269BB
:10155000134342691343C269134308689F4A024018
:1015600013430B602268536823F44053E1680B4334
:101570005360A36922689A498A4201D0216A0B43C9
:10158000916821F430610B4393602368954A93423C
:1015900027D0954A934238D0944A93424ED0944AE9
:1015A000934261D0934A934274D08D4A934200F0A3
:1015B0008A8010258A4A934200F0AA80E369B3F535
:1015C000004F00F02C81082D00F2B781DFE815F004
:1015D00076018D019701B501A201B501B501B501F3
:1015E000AC0102F55842D2F8882002F00302032A27
:1015F00009D8DFE802F0020481060125DAE70425B4
:10160000D8E70825D6E71025D4E702F5E632D2F868
:10161000882002F00C020C2A0ED8DFE802F0070D39
:101620000D0D090D0D0D6F0D0D0D0B000025C1E702
:101630000425BFE70825BDE71025BBE702F5E43226
:10164000D2F8882002F03002102A09D005D9202AC9
:1016500056D0302A06D10825ACE71AB90025A9E7EB
:101660000425A7E71025A5E702F5E232D2F8882085
:1016700002F0C002402A09D005D9802A42D0C02AEF
:1016800006D1082596E71AB9002593E7042591E7C6
:1016900010258FE702F5E032D2F8882002F440727C
:1016A000B2F5807F0BD007D9B2F5007F2CD0B2F510
:1016B000407F06D108257DE71AB900257AE7042581
:1016C00078E7102576E702F5C832D2F8882002F4D0
:1016D0004062B2F5806F0BD007D9B2F5006F15D01C
:1016E000B2F5406F06D1082564E71AB9002561E715
:1016F00004255FE710255DE702255BE7022559E732
:10170000022557E7022555E7022553E7022551E751
:10171000082D11D8DFE805F0081005100C10101086
:101720001300354800260DE000F060FF002609E0B8
:1017300000F034FB002605E00020012602E04FF413
:1017400000400026002800F0CA80626802EB4203D5
:101750009842C0F0F580B0EB023F00F2F380082D14
:101760005AD8DFE805F005591F59295959594F0032
:1017700000F03CFF00234FEA10694FEA002862683E
:10178000500818EB000B49F1000C58466146FFF772
:1017900093F8A0F54072194B9A4200F2D580236865
:1017A000D8609CE05508002315480021401941F1FC
:1017B0000001FFF781F8ECE700F0F0FA00234FEAB0
:1017C00010694FEA00286268500818EB000B49F1D5
:1017D000000C58466146FFF76FF8DAE7F369FFEF50
:1017E00000800040003801400044004000480040B4
:1017F000004C0040005000400024F400FFFC0F00AB
:10180000000024F450080021002310F5000041F1ED
:101810000001FFF751F8BCE701260020B9E7082DC9
:1018200049D8DFE805F0051E2948344848483F00FC
:1018300000F0DCFE6268530803EB4003B3FBF2F3F5
:101840009BB20026A3F110014FF6EF7291427DD8B2
:101850009AB222F00F02C3F3420313432268D3600B
:101860003DE000F0D5FE6268530803EB4003B3FB94
:10187000F2F39BB20026E5E76268530803F1F473C4
:1018800003F59043B3FBF2F39BB20026DAE700F0D6
:1018900085FA6268530803EB4003B3FBF2F39BB293
:1018A0000026CFE76268530803F58033B3FBF2F3F9
:1018B0009BB20026C6E701260023C3E700F096FE90
:1018C000636800EB5300B0FBF3F080B20026A0F198
:1018D00010024FF6EF739A423AD82368D86000237B
:1018E000236663663046BDE8788B00F091FE63683E
:1018F00000EB5300B0FBF3F080B20026E7E763682B
:10190000580800F5740000F51050B0FBF3F080B2F9
:101910000026DCE700F042FA636800EB5300B0FBFE
:10192000F3F080B20026D2E76368580800F5004063
:10193000B0FBF3F080B20026C9E701260020C6E71D
:101940000126CCE70126CAE70126C8E70126C6E73B
:101950000126C4E7436A13F0010F06D002685368FA
:1019600023F40033816A0B435360436A13F0020F80
:1019700006D00268536823F48033C16A0B43536076
:10198000436A13F0040F06D00268536823F48023DF
:10199000016B0B435360436A13F0080F06D00268D3
:1019A000536823F40043416B0B435360436A13F0C5
:1019B000100F06D00268936823F48053816B0B43A9
:1019C0009360436A13F0200F06D00268936823F4F3
:1019D0000053C16B0B439360436A13F0400F0AD06E
:1019E0000268536823F48013016C0B435360036C4B
:1019F000B3F5801F0BD0436A13F0800F06D0026846
:101A0000536823F40023816C0B43536070470268D2
:101A1000536823F4C003416C0B435360EBE72DE99B
:101A2000F04104460F4616469846069D2368DB693A
:101A300037EA03030CBF01230023B3423CD1B5F1C5
:101A4000FF3FF3D000F05CF9A0EB0800854220D303
:101A5000FDB123681A6812F0040FE7D0DA6912F4B6
:101A6000006FE3D04FF400621A622268136823F417
:101A7000D07313602268936823F0010393602023DE
:101A80006367A367E367002384F870300320BDE831
:101A9000F0812268136823F4D0731360226893687E
:101AA00023F00103936020236367A367002384F876
:101AB00070300320BDE8F0810020BDE8F0812DE901
:101AC000F04182B01E46436F202B04D002231846FB
:101AD00002B0BDE8F08104460D469046002955D07D
:101AE000002A55D090F87030012B01D10223EEE787
:101AF000012380F870300023C3672123436700F07F
:101B0000FFF80746A4F85080A4F85280A368B3F504
:101B1000805F05D04FF00008002384F8703014E097
:101B2000236913B14FF00008F6E7A8460025F3E754
:101B3000226838F8023BC3F308031385B4F8523027
:101B40009BB2013B9BB2A4F85230B4F852309BB226
:101B500073B100963B46002280212046FFF75FFFCD
:101B6000C0B9002DE4D0236815F8012B1A85E5E7EC
:101B700000963B46002240212046FFF750FF0346D7
:101B800008B10323A3E720226267A0E701239EE7B1
:101B900001239CE703239AE730B583B00446002372
:101BA000C36700F0ADF8054623681B6813F0080F03
:101BB0000CD123681B6813F0040F15D12023636731
:101BC000A367002084F8700003B030BD6FF07E433F
:101BD0000093034600224FF400112046FFF71FFF39
:101BE0000028E6D00320EFE76FF07E4300932B46FA
:101BF00000224FF480012046FFF711FF0028DDD0BE
:101C00000320E1E768B310B50446436F03B3242310
:101C100063672268136823F0010313602046FFF70F
:101C200091FC01281FD0636ABBB92268536823F472
:101C3000904353602268936823F02A0393602268DC
:101C4000136843F0010313602046FFF7A5FF10BDA2
:101C500080F87030FFF7DCF9D9E72046FFF77AFE0D
:101C6000E3E70120704710BD70470000104B1B6870
:101C70000BB90120704710B504464FF47A70B0FBE1
:101C8000F3F30C4A1068B0FBF3F001F009FB68B9FC
:101C90000F2C01D9012010BD002221464FF0FF304A
:101CA00001F0BEFA044B1C60002010BD012010BDE5
:101CB00000000020080000200400002010B5094AA0
:101CC000136843F480731360032001F097FA002037
:101CD000FFF7CCFF10B10124204610BD0446FFF7EA
:101CE0007FF9F9E700200240034A136803490968B5
:101CF0000B441360704700BF240400200000002044
:101D0000014B1868704700BF2404002030B583B031
:101D10000546204B9B6D13F0805F0BD001F01EFA3F
:101D2000B0F5007F17D0802D1FD82DD0702D2DD06D
:101D300000211BE0174CA36D43F08053A365A36DF6
:101D400003F080530193019B01F008FAA36D23F087
:101D50008053A365E4E7802D03D9A02D03D9022188
:101D600004E0002102E0012100E003210A4A136897
:101D700023F007030B431360136803F00703994232
:101D800006D0012003B030BD0221EFE70121EDE7CD
:101D90000020F7E70010024000200240284A936824
:101DA000D26802F0030213F00C030AD00C2B06D009
:101DB000042B1FD0082B20D00020024610E0012A5F
:101DC000F6D11F4A126812F0080F0CD11C4AD2F843
:101DD0009420C2F303221B4951F8222043B1002072
:101DE0000C2B0DD07047164A1268C2F30312F2E7AB
:101DF0001046F5E714480022F2E714480022EFE706
:101E00000F4BDB6803F00303022B15D0032B15D017
:101E10000B49C868C0F30210431CC868C0F3062011
:101E200000FB02F0B0FBF3F0CB68C3F34163013376
:101E30005B00B0FBF3F0D5E7034AE9E7034AE7E7C5
:101E400000100240B83300080024F40000127A00A9
:101E5000002800F0FC82F0B583B00446AF4B9D68CB
:101E600005F00C05DE6806F00306036813F0100F9A
:101E70005BD0E5B10C2D18D0A369002B00F0BC801D
:101E8000A64A136843F001031360FFF739FF0746C2
:101E9000A24B1B6813F0020F40F09B80FFF730FF4E
:101EA000C01B0228F4D90323DDE2012EE4D19B4BB1
:101EB0001B6813F0020F03D0A369002B00F0CA8245
:101EC000206A964B1B6813F0080F5CD0934B1B687D
:101ED00003F0F00383425DD3904B1A6842F008028E
:101EE0001A601A6822F0F002216A0A431A605A68DE
:101EF00022F47F42E16942EA01225A60002D61D05A
:101F0000FFF74CFF854B9B68C3F30313844AD35CF4
:101F100003F01F03D840834B1860834B1868FFF70A
:101F2000A5FE0346002840F09E82236813F0010FAF
:101F300000F08180082D75D00C2D71D06368B3F549
:101F4000803F00F09780B3F5A02F00F09980734B8D
:101F50001A6822F480321A601A6822F480221A6009
:101F60006368002B00F09980FFF7CAFE07466B4BB1
:101F70001B6813F4003F5ED1FFF7C2FEC01B64284C
:101F8000F5D903236FE2654BD3F894301B0903F0B6
:101F9000F0039FE7FFF7BAFE002840F05D825F4B39
:101FA0001A6842F008021A601A6822F0F002216AE8
:101FB0000A431A605A6822F47F42E16942EA012228
:101FC0005A609DE7206AFFF7A1FE002898D0012300
:101FD00049E2524B1A6842F008021A601A6822F06D
:101FE000F002216A0A431A605A6822F47F42E169CA
:101FF00042EA01225A6098E7484A136823F0010335
:102000001360FFF77DFE0746444B1B6813F0020F79
:102010008BD0FFF775FEC01B0228F5D9032322E2FF
:10202000032E8BD13D4B1B6813F4003F03D0636834
:10203000002B00F01382236813F0020F4FD0042D01
:102040003CD00C2D38D0E368002B78D0334A13688D
:1020500043F480731360FFF753FE06462F4B1B6853
:1020600013F4806F62D1FFF74BFE801B0228F5D975
:102070000323F8E1294A136843F4803313606FE7C0
:1020800003F18043A3F53C331A6842F480221A60BE
:102090001A6842F480321A6062E7FFF731FE0746A1
:1020A0001E4B1B6813F4003FC5D0FFF729FEC01B71
:1020B0006428F5D90323D6E1022EC4D1174B1B683F
:1020C00013F4806F03D0E368002B00F0C981134A3A
:1020D000536823F0F853216943EA0163536023688E
:1020E00013F0080F56D06369002B3CD00B4AD2F88E
:1020F000943043F00103C2F89430FFF701FE064626
:10210000064BD3F8943013F0020F43D1FFF7F8FDDC
:10211000801B0228F4D90323A5E100BF0010024070
:10212000A03300080800002004000020A44A5368DF
:1021300023F0F853216943EA01635360CFE7A04AD3
:10214000136823F480731360FFF7DAFD06469C4B97
:102150001B6813F4806FC2D0FFF7D2FD801B0228EA
:10216000F5D903237FE1964AD2F8943023F0010396
:10217000C2F89430FFF7C4FD0646914BD3F8943073
:1021800013F0020F06D0FFF7BBFD801B0228F4D925
:10219000032368E1236813F0040F7AD0884B9B6D0A
:1021A00013F0805F36D1864B9A6D42F080529A656B
:1021B0009B6D03F080530193019B0126814B1B68AB
:1021C00013F4807F28D0A368012B39D0052B3FD092
:1021D0007B4BD3F8902022F00102C3F89020D3F873
:1021E000902022F00402C3F89020A368002B3DD079
:1021F000FFF786FD0746724BD3F8903013F0020FBD
:1022000046D1FFF77DFDC01B41F288339842F2D9D9
:10221000032328E10026D1E76A4A136843F4807358
:102220001360FFF76DFD0746664B1B6813F4807F54
:10223000C9D1FFF765FDC01B0228F5D9032312E1C0
:102240005F4AD2F8903043F00103C2F89030CCE7F7
:102250005B4BD3F8902042F00402C3F89020D3F8EF
:10226000902042F00102C3F89020BEE7FFF748FD3E
:102270000746534BD3F8903013F0020F08D0FFF706
:102280003FFDC01B41F288339842F2D90323EAE0B4
:102290006EBBA36A002B00F0E580022B2DD00C2D25
:1022A00000F0EC80464B1A6822F080721A601B68BE
:1022B00013F0205F04D1424AD36823F00303D360B4
:1022C0003F4AD36823F0887323F48033D360FFF749
:1022D00017FD04463A4B1B6813F0007F00F0B580F1
:1022E000FFF70EFD001B0228F4D90323BBE0344A9C
:1022F000936D23F080539365CBE7314BDB6803F09C
:102300000301E26A91420FD00C2D00F0AF802C4BFC
:102310001B6813F0806F40F0AB80294B1B6813F0F3
:10232000805F38D001239EE003F07002216B0139F9
:10233000B2EB011FE8D103F4FE42616BB2EB012F57
:10234000E2D103F40031A26B073A18BF0122914297
:10235000DAD103F4C001E26B5208013AB1EB425FFB
:10236000D2D103F0C063226C5208013AB3EB426F42
:10237000CAD1134B1B6813F0007F7BD1104B1A6836
:1023800042F080721A60DA6842F08072DA60FFF719
:10239000B7FC044652E00A4A136823F080731360C6
:1023A000FFF7AEFC0546064B1B6813F0007F0BD011
:1023B000FFF7A6FC401B0228F5D9032353E000BF1A
:1023C00000100240007000402D4AD3682D4919408A
:1023D000E36A206B013843EA0013606B43EA002391
:1023E000E06B4008013843EA4053206C4008013854
:1023F00043EA4063A06B000943EA40430B43D360C8
:10240000136843F080731360D36843F08073D36024
:10241000FFF776FC04461A4B1B6813F0007F06D1C9
:10242000FFF76EFC001B0228F5D903231BE00023F5
:1024300019E0FFF765FC001B02281DD8104B1B6834
:1024400013F0007FF5D000230DE000230BE0012303
:1024500018467047012306E0012304E0012302E04F
:10246000012300E00023184603B0F0BD0123FAE782
:102470000123F8E70023F6E70323F4E70123F2E75B
:10248000001002408C809DF9002800F09B8070B500
:1024900004464E4B1B6803F007038B420CD24B4A99
:1024A000136823F007030B431360136803F007035B
:1024B000994201D0012070BD0D46236813F0010F31
:1024C00039D06368032B09D0022B26D063BB404A66
:1024D000126812F0020F06D1012070BD3C4A12684A
:1024E00012F0007F70D03A498A6822F00302134349
:1024F0008B60FFF705FC0646354B9B6803F00C0329
:102500006268B3EB820F16D0FFF7FAFB801B41F233
:1025100088339842F0D9032070BD2D4A126812F416
:10252000003FE0D1012070BD294A126812F4806F8B
:10253000D9D1012070BD236813F0020F06D0244AC0
:10254000936823F0F003A1680B4393601F4B1B6853
:1025500003F007039D420CD21C4A136823F00703C3
:102560002B431360136803F007039D4201D0012041
:1025700070BD236813F0040F06D0154A936823F446
:10258000E063E1680B439360236813F0080F07D002
:102590000F4A936823F46053216943EAC1039360AF
:1025A000FFF7FCFB0A4B9B68C3F30313094AD35C98
:1025B00003F01F03D840084B1860084B1868FFF75A
:1025C00055FB70BD01207047012070BD0020024006
:1025D00000100240A0330008080000200400002082
:1025E000014B1868704700BF0800002008B5FFF7CE
:1025F000F7FF054B9B68C3F30223044AD35C03F047
:102600001F03D84008BD00BF00100240B0330008CF
:1026100008B5FFF7E5FF054B9B68C3F3C223044AE7
:10262000D35C03F01F03D84008BD00BF0010024078
:10263000B0330008F8B55E4BDB6813F0030F19D018
:102640005B4BDB6803F003030268934204D0012470
:10265000002C48D02046F8BD002A42D0544BDB68FD
:10266000C3F3021301334268934201D00124EFE720
:102670000024EDE70368022B18D0032B1DD0012B9B
:102680000DD00124002CE3D1494EF26822F07302F0
:102690004568013D43EA05131343F360D8E7444A14
:1026A000126812F0020F14D00024EBE7404A1268BF
:1026B00012F4806F0FD00024E4E73D4A126812F450
:1026C000003F0AD13A4A126812F4802F07D0002442
:1026D000D8E70124D6E70124D4E70024D2E7012477
:1026E000D0E70124B4E70F460546314A136823F0CA
:1026F00080631360FFF704FB06462D4B1B6813F045
:10270000006F05D0FFF7FCFA801B0228F5D90324DF
:10271000002C9FD14FBB26490B6923F41F3323F4B0
:102720004073A868EA681209520442EA002213437F
:102730000B611F4A136843F080631360FFF7E0FAF0
:1027400006461B4B1B6813F0006F05D1FFF7D8FA44
:10275000801B0228F5D90324002C7FF47BAF144A98
:102760001369A9690B43136174E7012F0FD0104857
:10277000026922F0C06222F4FE42A9686B695B081C
:10278000013B5B0643EA012313430361D1E7084899
:10279000026922F4C00222F4FE42A9682B695B0898
:1027A000013B5B0543EA012313430361C1E700BF1B
:1027B00000100240F8B5554BDB6813F0030F19D039
:1027C000524BDB6803F003030268934204D00124F8
:1027D000002C48D02046F8BD002A42D04B4BDB6885
:1027E000C3F3021301334268934201D00124EFE79F
:1027F0000024EDE70368022B18D0032B1DD0012B1A
:102800000DD00124002CE3D1404EF26822F0730277
:102810004568013D43EA05131343F360D8E73B4A9B
:10282000126812F0020F14D00024EBE7374A126846
:1028300012F4806F0FD00024E4E7344A126812F4D7
:10284000003F0AD1314A126812F4802F07D00024C9
:10285000D8E70124D6E70124D4E70024D2E70124F5
:10286000D0E70124B4E70F460546284A136823F051
:1028700080531360FFF744FA0646244B1B6813F09D
:10288000005F05D0FFF73CFA801B0228F5D903242E
:10289000002C9FD14FBB1D494B6923F41F3323F4F8
:1028A0004073A868EA681209520442EA00221343FE
:1028B0004B61164A136843F080531360FFF720FA08
:1028C0000646124B1B6813F0005F05D1FFF718FA9C
:1028D000801B0228F5D90324002C7FF47BAF0B4A20
:1028E000536969690B43536174E70848426922F0F0
:1028F000C06222F4FE42A9682B695B08013B5B06BB
:1029000043EA012313434361D3E700BF00100240B1
:102910002DE9F04182B00446036813F4006F2FD014
:10292000436EB3F5800F23D014D9B3F5000F18D040
:10293000B3F5400F22D10026002E40F09980654A61
:10294000D2F8883023F44003616E0B43C2F888301C
:10295000374617E093B900210430FFF76BFE0646B7
:10296000EAE75C4AD36843F48033D3600026E3E7A8
:1029700000212030FFF71EFF0646DDE70126DBE7DA
:1029800000273E46236813F4805F15D0A36EB3F191
:10299000807F7CD06ED9B3F1007F72D0B3F1407FDD
:1029A0007CD1002E7CD14B4AD2F8883023F0407382
:1029B000A16E0B43C2F88830236813F4003F00F087
:1029C0009280444B9B6D13F0805F6BD10123002BF1
:1029D0006AD0404B9A6D42F080529A659B6D03F02D
:1029E00080530193019B4FF001083B4A136843F465
:1029F00080731360FFF784F90546374B1B6813F4A7
:102A0000807F05D1FFF77CF9401B0228F5D903260A
:102A1000002E63D12F4BD3F8903013F4407316D0AF
:102A2000D4F88420934212D02A4AD2F8903023F46A
:102A30004073D2F8901041F48031C2F89010D2F86F
:102A4000901021F48031C2F89010C2F8903013F049
:102A5000010F2CD1002E40F044811E4AD2F8903054
:102A600023F44073D4F884100B43C2F8903036E05E
:102A7000374687E793B90021201DFFF7DBFD0646A7
:102A80008FE7144AD36843F48033D36089E7002189
:102A900004F12000FFF78EFE064682E7012680E75C
:102AA000374689E7002392E74FF000089DE7FFF7DC
:102AB00027F90546074BD3F8903013F0020FC9D120
:102AC000FFF71EF9401B41F288339842F2D90326E2
:102AD000C0E700BF00100240007000403746B8F168
:102AE000000F40F00081236813F0010F08D09D4AC9
:102AF000D2F8883023F00303A16B0B43C2F888306F
:102B0000236813F0020F08D0964AD2F8883023F0D9
:102B10000C03E16B0B43C2F88830236813F0040FF9
:102B200008D0904AD2F8883023F03003216C0B4350
:102B3000C2F88830236813F0080F08D0894AD2F809
:102B4000883023F0C003616C0B43C2F888302368DF
:102B500013F0100F08D0834AD2F8883023F4407362
:102B6000A16C0B43C2F88830236813F0200F08D003
:102B70007C4AD2F8883023F44063E16C0B43C2F8FE
:102B80008830236813F4007F08D0764AD2F8883062
:102B900023F44023E16D0B43C2F88830236813F41B
:102BA000806F08D06F4AD2F8883023F44013216E2A
:102BB0000B43C2F88830236813F0400F08D0694AED
:102BC000D2F8883023F44053216D0B43C2F888308B
:102BD000236813F0800F08D0624AD2F8883023F4BB
:102BE0004043616D0B43C2F88830236813F4807F43
:102BF00008D05C4AD2F8883023F44033A16D0B43EF
:102C0000C2F88830236813F4005F0FD0554AD2F819
:102C1000883023F04063E16E0B43C2F88830E36EE6
:102C2000B3F1006F65D0B3F1806F67D0236813F400
:102C3000002F0FD04B4AD2F8883023F04063216F29
:102C40000B43C2F88830236FB3F1006F5ED0B3F14D
:102C5000806F60D0236813F4802F0FD0414AD2F8E0
:102C6000883023F04063616F0B43C2F88830636F94
:102C7000B3F1006F57D0B3F1806F59D0236813F4CC
:102C8000804F0FD0374AD2F8883023F04053A16FDD
:102C90000B43C2F88830A36FB3F1805F50D0B3F11B
:102CA000005F55D0236813F4004F08D02D4AD2F8A6
:102CB000883023F08043E16F0B43C2F888302368EB
:102CC00013F4803F09D0274AD2F8883023F000431C
:102CD000D4F880100B43C2F88830384602B0BDE803
:102CE000F0813746FBE61F4A936D23F080539365CE
:102CF000F9E6D36843F48013D36097E70121201DE0
:102D0000FFF798FC002891D007468FE7D36843F47B
:102D10008013D3609EE70121201DFFF78BFC002864
:102D200098D0074696E7D36843F48013D360A5E7AD
:102D30000121201DFFF77EFC00289FD007469DE75C
:102D40000221201DFFF776FC0028ABD00746A9E73B
:102D5000022104F12000FFF72DFD0028A2D0074634
:102D6000A0E700BF00100240F0B583B000239EE052
:102D700085684FEA430E032707FA0EF725EA070591
:102D8000CE6806FA0EF635438560456825EA0405E7
:102D90004E68C6F300169E40354345604D6805F009
:102DA0000306032E00F09780C6685F000324BC4032
:102DB000E44326408D68BD402E43C6604D68022D19
:102DC00000F09280122D00F08F8005682C404D6835
:102DD00005F00305BD402C4304604C6814F0805F8F
:102DE00064D0544C256E45F001052566246E04F030
:102DF00001040194019C9C08A61C4F4D55F82650D7
:102E000003F00306B7000F26BE4025EA0605B0F121
:102E1000904F00F08180494EB0427FD006F5806629
:102E2000B0427DD006F58066B0427BD006F5806664
:102E3000B04279D006F58066B04277D006F580665C
:102E4000B04267D00726BE40354302343A4E46F8BA
:102E500024503B4C2568D44305EA04064F6817F418
:102E6000803F01D042EA0506354D2E606D6804EAC8
:102E700005064F6817F4003F01D042EA0506304DC1
:102E80006E60AD6804EA05064F6817F4801F01D034
:102E900042EA05062A4DAE60ED682C404E6816F4F5
:102EA000001F01D042EA0504254AD46001330A68B4
:102EB00032FA03F43CD001249C402240F6D04D6805
:102EC0006E1E012E7FF654AF112D3FF451AF122D1F
:102ED0007FF464AF4CE7C66A26EA0404C5F3C00574
:102EE0009D402543C5625FE74FEAD30C0CF1080C07
:102EF00050F82C5003F0070E4FEA8E0E0F2606FAFC
:102F00000EF625EA06050E6906FA0EF6354340F878
:102F10002C505AE7062696E7002694E7012692E70A
:102F2000022690E703268EE704268CE705268AE72B
:102F300003B0F0BD00100240000001400004004852
:102F4000000401400AB98162704781617047000046
:102F5000002869D010B403460168344A914245D82C
:102F6000334A0A443349A1FB021212099200426417
:102F7000314A0264022283F825201868016821F48E
:102F8000FF4121F070019A68DC6822431C692243EA
:102F90005C6922439C692243DC6922431C6A224308
:102FA0000A4302609A68B2F5804F15D0196C224A24
:102FB000914226D0214A1168586C00F01C040F2061
:102FC000A04021EA00011160116858685C6C04F0AF
:102FD0001C04A040014311600020D863012283F843
:102FE000252083F824005DF8044B7047144A0A44F6
:102FF0001049A1FB0212120992004264114A0264B4
:10300000B8E7A8321168586C00F01C040F20A040EB
:1030100021EA00011160116858685C6C04F01C041E
:10302000A04001431160D7E7012070470704024028
:10303000F8FFFDBFCDCCCCCC00000240A80402407C
:10304000F8FBFDBF0004024008B590F82530DBB264
:10305000022B03D00423C363012008BD0268136858
:1030600023F00E0313600268136823F0010313605A
:10307000016C436C03F01C03012202FA03F34B6062
:1030800080F82520002380F82430836B13B1984703
:10309000002008BD002008BD38B5036C196804681D
:1030A0002568436C03F01C0304229A40114216D099
:1030B00015F0040F13D0236813F0200F03D12368F9
:1030C00023F004032360016C436C03F01C0204230F
:1030D00093404B60036B002B3ED0984738BD0222D3
:1030E0009A4011421BD015F0020F18D0236813F03C
:1030F000200F06D1236823F00A032360012380F800
:103100002530016C436C03F01C02022393404B609A
:10311000002380F82430C36AF3B1984738BD0822F1
:1031200002FA03F3194217D015F0080F14D02368E0
:1031300023F00E032360016C436C03F01C03012297
:1031400002FA03F34B60C26380F82520002380F865
:103150002430436B03B1984738BD0000024B186818
:1031600000F4C060704700BF00700040B0F5007F01
:103170000FD01F4B1B6803F4C063B3F5806F34D0CE
:103180001B4A136823F4C06343F480631360002078
:103190007047174B1B6803F4C063B3F5007F20D062
:1031A000134A136823F4C06343F400731360114B94
:1031B0001A68322303FB02F30F4AA2FB03239B0C82
:1031C000013300E0013B0A4A526912F4806F01D0DA
:1031D000002BF7D1064B5B6913F4806F03D00320FB
:1031E000704700207047002070470020704700BFE4
:1031F000007000400800002083DE1B43074AD368AC
:1032000023F4E0631B041B0C000200F4E06018438D
:1032100040F0BF6040F40030D060704700ED00E047
:1032200030B4164BDB68C3F30223C3F10704042C4C
:1032300028BF04241D1D062D17D9033B012505FABF
:1032400004F4013C2140994005FA03F3013B13408B
:10325000194300280BDB0901C9B200F1604000F5F9
:10326000614080F8001330BC70470023E6E700F0AF
:103270000F000901C9B2024B1954F4E700ED00E058
:1032800014ED00E0002808DB420900F01F000123D4
:1032900003FA00F0014B43F82200704700E100E020
:1032A0000138B0F1807F0AD2064B5860F021064AFF
:1032B00082F823100020986007221A6070470120CE
:1032C000704700BF10E000E000ED00E00F49D1F8CA
:1032D000883043F47003C1F888300D4B1A6842F00F
:1032E00001021A60002098601A6822F0A85222F4A5
:1032F00010221A604FF48052DA601A6822F4802299
:103300001A6098614FF000638B60704700ED00E039
:1033100000100240DFF834D0002103E00C4B5B5872
:10332000435004310B480C4B42189A42F6D30B4AD7
:1033300002E0002342F8043B094B9A42F9D3FFF71D
:10334000C5FFFCF78FFFFDF7E1FDFEE700800120E0
:1033500000340008000000201000002010000020B1
:1033600028040020FEE70000F8B500BFF8BC08BC48
:103370009E467047F8B500BFF8BC08BC9E46704733
:103380006572726F72206F6363757265640000000E
:103390000A00000024000000737461727465640008
:1033A00000000000000000000102030406070809F5
:1033B0000000000001020304A0860100400D03008C
:1033C000801A060000350C0040420F0080841E0069
:1033D00000093D0000127A000024F40000366E015E
:0833E0000048E801006CDC026A
:0833E80000D5FF7F0100000089
:0833F0002D020008000000009E
:0833F8000502000800000000BE
:10340000010000001000000000093D000000000065
:0400000508003315A7
:00000001FF
